{
  "contractName": "Dex",
  "abi": [
    {
      "inputs": [],
      "stateMutability": "nonpayable",
      "type": "constructor"
    },
    {
      "anonymous": false,
      "inputs": [
        {
          "indexed": false,
          "internalType": "uint256",
          "name": "tradeId",
          "type": "uint256"
        },
        {
          "indexed": false,
          "internalType": "uint256",
          "name": "orderId",
          "type": "uint256"
        },
        {
          "indexed": true,
          "internalType": "bytes32",
          "name": "ticker",
          "type": "bytes32"
        },
        {
          "indexed": true,
          "internalType": "address",
          "name": "trader1",
          "type": "address"
        },
        {
          "indexed": true,
          "internalType": "address",
          "name": "trader2",
          "type": "address"
        },
        {
          "indexed": false,
          "internalType": "uint256",
          "name": "amount",
          "type": "uint256"
        },
        {
          "indexed": false,
          "internalType": "uint256",
          "name": "price",
          "type": "uint256"
        },
        {
          "indexed": false,
          "internalType": "uint256",
          "name": "date",
          "type": "uint256"
        }
      ],
      "name": "NewTrade",
      "type": "event"
    },
    {
      "inputs": [],
      "name": "admin",
      "outputs": [
        {
          "internalType": "address",
          "name": "",
          "type": "address"
        }
      ],
      "stateMutability": "view",
      "type": "function",
      "constant": true
    },
    {
      "inputs": [],
      "name": "nextOrderId",
      "outputs": [
        {
          "internalType": "uint256",
          "name": "",
          "type": "uint256"
        }
      ],
      "stateMutability": "view",
      "type": "function",
      "constant": true
    },
    {
      "inputs": [],
      "name": "nextTradeId",
      "outputs": [
        {
          "internalType": "uint256",
          "name": "",
          "type": "uint256"
        }
      ],
      "stateMutability": "view",
      "type": "function",
      "constant": true
    },
    {
      "inputs": [
        {
          "internalType": "bytes32",
          "name": "",
          "type": "bytes32"
        },
        {
          "internalType": "uint256",
          "name": "",
          "type": "uint256"
        },
        {
          "internalType": "uint256",
          "name": "",
          "type": "uint256"
        }
      ],
      "name": "orderBook",
      "outputs": [
        {
          "internalType": "uint256",
          "name": "id",
          "type": "uint256"
        },
        {
          "internalType": "enum Dex.Side",
          "name": "side",
          "type": "uint8"
        },
        {
          "internalType": "bytes32",
          "name": "ticker",
          "type": "bytes32"
        },
        {
          "internalType": "address",
          "name": "trader",
          "type": "address"
        },
        {
          "internalType": "uint256",
          "name": "amount",
          "type": "uint256"
        },
        {
          "internalType": "uint256",
          "name": "filled",
          "type": "uint256"
        },
        {
          "internalType": "uint256",
          "name": "price",
          "type": "uint256"
        },
        {
          "internalType": "uint256",
          "name": "date",
          "type": "uint256"
        }
      ],
      "stateMutability": "view",
      "type": "function",
      "constant": true
    },
    {
      "inputs": [
        {
          "internalType": "uint256",
          "name": "",
          "type": "uint256"
        }
      ],
      "name": "tokenList",
      "outputs": [
        {
          "internalType": "bytes32",
          "name": "",
          "type": "bytes32"
        }
      ],
      "stateMutability": "view",
      "type": "function",
      "constant": true
    },
    {
      "inputs": [
        {
          "internalType": "bytes32",
          "name": "",
          "type": "bytes32"
        }
      ],
      "name": "tokens",
      "outputs": [
        {
          "internalType": "bytes32",
          "name": "ticker",
          "type": "bytes32"
        },
        {
          "internalType": "address",
          "name": "tokenAddress",
          "type": "address"
        }
      ],
      "stateMutability": "view",
      "type": "function",
      "constant": true
    },
    {
      "inputs": [
        {
          "internalType": "address",
          "name": "",
          "type": "address"
        },
        {
          "internalType": "bytes32",
          "name": "",
          "type": "bytes32"
        }
      ],
      "name": "traderBalances",
      "outputs": [
        {
          "internalType": "uint256",
          "name": "",
          "type": "uint256"
        }
      ],
      "stateMutability": "view",
      "type": "function",
      "constant": true
    },
    {
      "inputs": [
        {
          "internalType": "bytes32",
          "name": "ticker",
          "type": "bytes32"
        },
        {
          "internalType": "enum Dex.Side",
          "name": "side",
          "type": "uint8"
        }
      ],
      "name": "getOrders",
      "outputs": [
        {
          "components": [
            {
              "internalType": "uint256",
              "name": "id",
              "type": "uint256"
            },
            {
              "internalType": "enum Dex.Side",
              "name": "side",
              "type": "uint8"
            },
            {
              "internalType": "bytes32",
              "name": "ticker",
              "type": "bytes32"
            },
            {
              "internalType": "address",
              "name": "trader",
              "type": "address"
            },
            {
              "internalType": "uint256",
              "name": "amount",
              "type": "uint256"
            },
            {
              "internalType": "uint256",
              "name": "filled",
              "type": "uint256"
            },
            {
              "internalType": "uint256",
              "name": "price",
              "type": "uint256"
            },
            {
              "internalType": "uint256",
              "name": "date",
              "type": "uint256"
            }
          ],
          "internalType": "struct Dex.Order[]",
          "name": "",
          "type": "tuple[]"
        }
      ],
      "stateMutability": "view",
      "type": "function",
      "constant": true
    },
    {
      "inputs": [],
      "name": "getTokens",
      "outputs": [
        {
          "components": [
            {
              "internalType": "bytes32",
              "name": "ticker",
              "type": "bytes32"
            },
            {
              "internalType": "address",
              "name": "tokenAddress",
              "type": "address"
            }
          ],
          "internalType": "struct Dex.Token[]",
          "name": "",
          "type": "tuple[]"
        }
      ],
      "stateMutability": "view",
      "type": "function",
      "constant": true
    },
    {
      "inputs": [
        {
          "internalType": "bytes32",
          "name": "ticker",
          "type": "bytes32"
        },
        {
          "internalType": "address",
          "name": "tokenAddress",
          "type": "address"
        }
      ],
      "name": "addToken",
      "outputs": [],
      "stateMutability": "nonpayable",
      "type": "function"
    },
    {
      "inputs": [
        {
          "internalType": "uint256",
          "name": "amount",
          "type": "uint256"
        },
        {
          "internalType": "bytes32",
          "name": "ticker",
          "type": "bytes32"
        }
      ],
      "name": "deposit",
      "outputs": [],
      "stateMutability": "nonpayable",
      "type": "function"
    },
    {
      "inputs": [
        {
          "internalType": "uint256",
          "name": "amount",
          "type": "uint256"
        },
        {
          "internalType": "bytes32",
          "name": "ticker",
          "type": "bytes32"
        }
      ],
      "name": "withdraw",
      "outputs": [],
      "stateMutability": "nonpayable",
      "type": "function"
    },
    {
      "inputs": [
        {
          "internalType": "bytes32",
          "name": "ticker",
          "type": "bytes32"
        },
        {
          "internalType": "uint256",
          "name": "amount",
          "type": "uint256"
        },
        {
          "internalType": "uint256",
          "name": "price",
          "type": "uint256"
        },
        {
          "internalType": "enum Dex.Side",
          "name": "side",
          "type": "uint8"
        }
      ],
      "name": "createLimitOrder",
      "outputs": [],
      "stateMutability": "nonpayable",
      "type": "function"
    },
    {
      "inputs": [
        {
          "internalType": "bytes32",
          "name": "ticker",
          "type": "bytes32"
        },
        {
          "internalType": "uint256",
          "name": "amount",
          "type": "uint256"
        },
        {
          "internalType": "enum Dex.Side",
          "name": "side",
          "type": "uint8"
        }
      ],
      "name": "createMarketOrder",
      "outputs": [],
      "stateMutability": "nonpayable",
      "type": "function"
    }
  ],
  "bytecode": "0x608060405234801561001057600080fd5b5033600260006101000a81548173ffffffffffffffffffffffffffffffffffffffff021916908373ffffffffffffffffffffffffffffffffffffffff1602179055506135c0806100616000396000f3fe608060405234801561001057600080fd5b50600436106100ea5760003560e01c80639776aacf1161008c578063aa6ca80811610066578063aa6ca80814610277578063c9630cb014610295578063d9c0c950146102b1578063f851a440146102cd576100ea565b80639776aacf1461020f5780639ead72221461022b578063a8d2021a1461025b576100ea565b806372ce957e116100c857806372ce957e146101745780637f2c6246146101a4578063813ad083146101c0578063904194a3146101de576100ea565b80630bb431b6146100ef5780632a58b3301461012657806346e9658b14610144575b600080fd5b61010960048036038101906101049190612890565b6102eb565b60405161011d9897969594939291906129b9565b60405180910390f35b61012e61038a565b60405161013b9190612a37565b60405180910390f35b61015e60048036038101906101599190612a77565b610390565b60405161016b9190612c45565b60405180910390f35b61018e60048036038101906101899190612c93565b6104f4565b60405161019b9190612a37565b60405180910390f35b6101be60048036038101906101b99190612cd3565b610519565b005b6101c86116fd565b6040516101d59190612a37565b60405180910390f35b6101f860048036038101906101f39190612d26565b611703565b604051610206929190612d53565b60405180910390f35b61022960048036038101906102249190612d7c565b611747565b005b61024560048036038101906102409190612dbc565b61189b565b6040516102529190612de9565b60405180910390f35b61027560048036038101906102709190612e04565b6118bf565b005b61027f611b68565b60405161028c9190612f22565b60405180910390f35b6102af60048036038101906102aa9190612e04565b611cc1565b005b6102cb60048036038101906102c69190612f44565b611ed9565b005b6102d5612784565b6040516102e29190612fab565b60405180910390f35b6004602052826000526040600020602052816000526040600020818154811061031357600080fd5b906000526020600020906008020160009250925050508060000154908060010160009054906101000a900460ff16908060020154908060030160009054906101000a900473ffffffffffffffffffffffffffffffffffffffff16908060040154908060050154908060060154908060070154905088565b60055481565b60606004600084815260200190815260200160002060008360018111156103ba576103b96128f2565b5b8152602001908152602001600020805480602002602001604051908101604052809291908181526020016000905b828210156104e8578382906000526020600020906008020160405180610100016040529081600082015481526020016001820160009054906101000a900460ff16600181111561043b5761043a6128f2565b5b600181111561044d5761044c6128f2565b5b8152602001600282015481526020016003820160009054906101000a900473ffffffffffffffffffffffffffffffffffffffff1673ffffffffffffffffffffffffffffffffffffffff1673ffffffffffffffffffffffffffffffffffffffff168152602001600482015481526020016005820154815260200160068201548152602001600782015481525050815260200190600101906103e8565b50505050905092915050565b6003602052816000526040600020602052806000526040600020600091509150505481565b82600073ffffffffffffffffffffffffffffffffffffffff1660008083815260200190815260200160002060010160009054906101000a900473ffffffffffffffffffffffffffffffffffffffff1673ffffffffffffffffffffffffffffffffffffffff1614156105bf576040517f08c379a00000000000000000000000000000000000000000000000000000000081526004016105b690613023565b60405180910390fd5b837f4441490000000000000000000000000000000000000000000000000000000000600080838152602001908152602001600020600001541415610638576040517f08c379a000000000000000000000000000000000000000000000000000000000815260040161062f9061308f565b60405180910390fd5b60018081111561064b5761064a6128f2565b5b83600181111561065e5761065d6128f2565b5b14156106f85783600360003373ffffffffffffffffffffffffffffffffffffffff1673ffffffffffffffffffffffffffffffffffffffff16815260200190815260200160002060008781526020019081526020016000205410156106f7576040517f08c379a00000000000000000000000000000000000000000000000000000000081526004016106ee906130fb565b60405180910390fd5b5b6000600460008781526020019081526020016000206000806001811115610722576107216128f2565b5b866001811115610735576107346128f2565b5b14610741576000610744565b60015b6001811115610756576107556128f2565b5b815260200190815260200160002090506000808690505b8280549050821080156107805750600081115b156114885760006107e284848154811061079d5761079c61311b565b5b9060005260206000209060080201600501548585815481106107c2576107c161311b565b5b9060005260206000209060080201600401546127aa90919063ffffffff16565b905060008183116107f357826107f5565b815b905061080a81846127aa90919063ffffffff16565b9250610843818686815481106108235761082261311b565b5b9060005260206000209060080201600501546127c090919063ffffffff16565b8585815481106108565761085561311b565b5b9060005260206000209060080201600501819055503373ffffffffffffffffffffffffffffffffffffffff168585815481106108955761089461311b565b5b906000526020600020906008020160030160009054906101000a900473ffffffffffffffffffffffffffffffffffffffff1673ffffffffffffffffffffffffffffffffffffffff168b7fdb0c486e680ba8026643e6a85f8d157b5e7bcd4b32b54d564542570a9eb204166006548989815481106109155761091461311b565b5b906000526020600020906008020160000154868b8b8154811061093b5761093a61311b565b5b9060005260206000209060080201600601544260405161095f95949392919061314a565b60405180910390a460018081111561097a576109796128f2565b5b88600181111561098d5761098c6128f2565b5b1415610e6c576109f681600360003373ffffffffffffffffffffffffffffffffffffffff1673ffffffffffffffffffffffffffffffffffffffff16815260200190815260200160002060008d8152602001908152602001600020546127aa90919063ffffffff16565b600360003373ffffffffffffffffffffffffffffffffffffffff1673ffffffffffffffffffffffffffffffffffffffff16815260200190815260200160002060008c815260200190815260200160002081905550610b03610a84868681548110610a6357610a6261311b565b5b906000526020600020906008020160060154836127d690919063ffffffff16565b600360003373ffffffffffffffffffffffffffffffffffffffff1673ffffffffffffffffffffffffffffffffffffffff16815260200190815260200160002060007f44414900000000000000000000000000000000000000000000000000000000008152602001908152602001600020546127c090919063ffffffff16565b600360003373ffffffffffffffffffffffffffffffffffffffff1673ffffffffffffffffffffffffffffffffffffffff16815260200190815260200160002060007f4441490000000000000000000000000000000000000000000000000000000000815260200190815260200160002081905550610c1e8160036000888881548110610b9257610b9161311b565b5b906000526020600020906008020160030160009054906101000a900473ffffffffffffffffffffffffffffffffffffffff1673ffffffffffffffffffffffffffffffffffffffff1673ffffffffffffffffffffffffffffffffffffffff16815260200190815260200160002060008d8152602001908152602001600020546127c090919063ffffffff16565b60036000878781548110610c3557610c3461311b565b5b906000526020600020906008020160030160009054906101000a900473ffffffffffffffffffffffffffffffffffffffff1673ffffffffffffffffffffffffffffffffffffffff1673ffffffffffffffffffffffffffffffffffffffff16815260200190815260200160002060008c815260200190815260200160002081905550610db3610cf0868681548110610ccf57610cce61311b565b5b906000526020600020906008020160060154836127d690919063ffffffff16565b60036000888881548110610d0757610d0661311b565b5b906000526020600020906008020160030160009054906101000a900473ffffffffffffffffffffffffffffffffffffffff1673ffffffffffffffffffffffffffffffffffffffff1673ffffffffffffffffffffffffffffffffffffffff16815260200190815260200160002060007f44414900000000000000000000000000000000000000000000000000000000008152602001908152602001600020546127aa90919063ffffffff16565b60036000878781548110610dca57610dc961311b565b5b906000526020600020906008020160030160009054906101000a900473ffffffffffffffffffffffffffffffffffffffff1673ffffffffffffffffffffffffffffffffffffffff1673ffffffffffffffffffffffffffffffffffffffff16815260200190815260200160002060007f44414900000000000000000000000000000000000000000000000000000000008152602001908152602001600020819055505b60006001811115610e8057610e7f6128f2565b5b886001811115610e9357610e926128f2565b5b141561145b57610ed0858581548110610eaf57610eae61311b565b5b906000526020600020906008020160060154826127d690919063ffffffff16565b600360003373ffffffffffffffffffffffffffffffffffffffff1673ffffffffffffffffffffffffffffffffffffffff16815260200190815260200160002060007f44414900000000000000000000000000000000000000000000000000000000008152602001908152602001600020541015610f82576040517f08c379a0000000000000000000000000000000000000000000000000000000008152600401610f79906131e9565b60405180910390fd5b610fe581600360003373ffffffffffffffffffffffffffffffffffffffff1673ffffffffffffffffffffffffffffffffffffffff16815260200190815260200160002060008d8152602001908152602001600020546127c090919063ffffffff16565b600360003373ffffffffffffffffffffffffffffffffffffffff1673ffffffffffffffffffffffffffffffffffffffff16815260200190815260200160002060008c8152602001908152602001600020819055506110f26110738686815481106110525761105161311b565b5b906000526020600020906008020160060154836127d690919063ffffffff16565b600360003373ffffffffffffffffffffffffffffffffffffffff1673ffffffffffffffffffffffffffffffffffffffff16815260200190815260200160002060007f44414900000000000000000000000000000000000000000000000000000000008152602001908152602001600020546127aa90919063ffffffff16565b600360003373ffffffffffffffffffffffffffffffffffffffff1673ffffffffffffffffffffffffffffffffffffffff16815260200190815260200160002060007f444149000000000000000000000000000000000000000000000000000000000081526020019081526020016000208190555061120d81600360008888815481106111815761118061311b565b5b906000526020600020906008020160030160009054906101000a900473ffffffffffffffffffffffffffffffffffffffff1673ffffffffffffffffffffffffffffffffffffffff1673ffffffffffffffffffffffffffffffffffffffff16815260200190815260200160002060008d8152602001908152602001600020546127aa90919063ffffffff16565b600360008787815481106112245761122361311b565b5b906000526020600020906008020160030160009054906101000a900473ffffffffffffffffffffffffffffffffffffffff1673ffffffffffffffffffffffffffffffffffffffff1673ffffffffffffffffffffffffffffffffffffffff16815260200190815260200160002060008c8152602001908152602001600020819055506113a26112df8686815481106112be576112bd61311b565b5b906000526020600020906008020160060154836127d690919063ffffffff16565b600360008888815481106112f6576112f561311b565b5b906000526020600020906008020160030160009054906101000a900473ffffffffffffffffffffffffffffffffffffffff1673ffffffffffffffffffffffffffffffffffffffff1673ffffffffffffffffffffffffffffffffffffffff16815260200190815260200160002060007f44414900000000000000000000000000000000000000000000000000000000008152602001908152602001600020546127c090919063ffffffff16565b600360008787815481106113b9576113b861311b565b5b906000526020600020906008020160030160009054906101000a900473ffffffffffffffffffffffffffffffffffffffff1673ffffffffffffffffffffffffffffffffffffffff1673ffffffffffffffffffffffffffffffffffffffff16815260200190815260200160002060007f44414900000000000000000000000000000000000000000000000000000000008152602001908152602001600020819055505b6006600081548092919061146e90613238565b9190505550838061147e90613238565b945050505061076d565b5b8280549050821080156114e357508282815481106114aa576114a961311b565b5b9060005260206000209060080201600401548383815481106114cf576114ce61311b565b5b906000526020600020906008020160050154145b156116f35760008290505b600184805490506114ff9190613281565b81101561164a578360018261151491906132b5565b815481106115255761152461311b565b5b90600052602060002090600802018482815481106115465761154561311b565b5b9060005260206000209060080201600082015481600001556001820160009054906101000a900460ff168160010160006101000a81548160ff02191690836001811115611596576115956128f2565b5b0217905550600282015481600201556003820160009054906101000a900473ffffffffffffffffffffffffffffffffffffffff168160030160006101000a81548173ffffffffffffffffffffffffffffffffffffffff021916908373ffffffffffffffffffffffffffffffffffffffff16021790555060048201548160040155600582015481600501556006820154816006015560078201548160070155905050808061164290613238565b9150506114ee565b508280548061165c5761165b61330b565b5b60019003818190600052602060002090600802016000808201600090556001820160006101000a81549060ff021916905560028201600090556003820160006101000a81549073ffffffffffffffffffffffffffffffffffffffff021916905560048201600090556005820160009055600682016000905560078201600090555050905581806116eb90613238565b925050611489565b5050505050505050565b60065481565b60006020528060005260406000206000915090508060000154908060010160009054906101000a900473ffffffffffffffffffffffffffffffffffffffff16905082565b600260009054906101000a900473ffffffffffffffffffffffffffffffffffffffff1673ffffffffffffffffffffffffffffffffffffffff163373ffffffffffffffffffffffffffffffffffffffff16146117d7576040517f08c379a00000000000000000000000000000000000000000000000000000000081526004016117ce90613386565b60405180910390fd5b600060405180604001604052808481526020018373ffffffffffffffffffffffffffffffffffffffff168152509050806000808581526020019081526020016000206000820151816000015560208201518160010160006101000a81548173ffffffffffffffffffffffffffffffffffffffff021916908373ffffffffffffffffffffffffffffffffffffffff1602179055509050506001839080600181540180825580915050600190039060005260206000200160009091909190915055505050565b600181815481106118ab57600080fd5b906000526020600020016000915090505481565b80600073ffffffffffffffffffffffffffffffffffffffff1660008083815260200190815260200160002060010160009054906101000a900473ffffffffffffffffffffffffffffffffffffffff1673ffffffffffffffffffffffffffffffffffffffff161415611965576040517f08c379a000000000000000000000000000000000000000000000000000000000815260040161195c90613023565b60405180910390fd5b82600360003373ffffffffffffffffffffffffffffffffffffffff1673ffffffffffffffffffffffffffffffffffffffff16815260200190815260200160002060008481526020019081526020016000205410156119f8576040517f08c379a00000000000000000000000000000000000000000000000000000000081526004016119ef906133f2565b60405180910390fd5b60008083815260200190815260200160002060010160009054906101000a900473ffffffffffffffffffffffffffffffffffffffff1673ffffffffffffffffffffffffffffffffffffffff1663a9059cbb33856040518363ffffffff1660e01b8152600401611a68929190613412565b6020604051808303816000875af1158015611a87573d6000803e3d6000fd5b505050506040513d601f19601f82011682018060405250810190611aab9190613473565b50611b0f83600360003373ffffffffffffffffffffffffffffffffffffffff1673ffffffffffffffffffffffffffffffffffffffff1681526020019081526020016000206000858152602001908152602001600020546127aa90919063ffffffff16565b600360003373ffffffffffffffffffffffffffffffffffffffff1673ffffffffffffffffffffffffffffffffffffffff168152602001908152602001600020600084815260200190815260200160002081905550505050565b6060600060018054905067ffffffffffffffff811115611b8b57611b8a6134a0565b5b604051908082528060200260200182016040528015611bc457816020015b611bb16127ec565b815260200190600190039081611ba95790505b50905060005b600180549050811015611cb957604051806040016040528060008060018581548110611bf957611bf861311b565b5b9060005260206000200154815260200190815260200160002060000154815260200160008060018581548110611c3257611c3161311b565b5b9060005260206000200154815260200190815260200160002060010160009054906101000a900473ffffffffffffffffffffffffffffffffffffffff1673ffffffffffffffffffffffffffffffffffffffff16815250828281518110611c9b57611c9a61311b565b5b60200260200101819052508080611cb190613238565b915050611bca565b508091505090565b80600073ffffffffffffffffffffffffffffffffffffffff1660008083815260200190815260200160002060010160009054906101000a900473ffffffffffffffffffffffffffffffffffffffff1673ffffffffffffffffffffffffffffffffffffffff161415611d67576040517f08c379a0000000000000000000000000000000000000000000000000000000008152600401611d5e90613023565b60405180910390fd5b60008083815260200190815260200160002060010160009054906101000a900473ffffffffffffffffffffffffffffffffffffffff1673ffffffffffffffffffffffffffffffffffffffff166323b872dd3330866040518463ffffffff1660e01b8152600401611dd9939291906134cf565b6020604051808303816000875af1158015611df8573d6000803e3d6000fd5b505050506040513d601f19601f82011682018060405250810190611e1c9190613473565b50611e8083600360003373ffffffffffffffffffffffffffffffffffffffff1673ffffffffffffffffffffffffffffffffffffffff1681526020019081526020016000206000858152602001908152602001600020546127c090919063ffffffff16565b600360003373ffffffffffffffffffffffffffffffffffffffff1673ffffffffffffffffffffffffffffffffffffffff168152602001908152602001600020600084815260200190815260200160002081905550505050565b83600073ffffffffffffffffffffffffffffffffffffffff1660008083815260200190815260200160002060010160009054906101000a900473ffffffffffffffffffffffffffffffffffffffff1673ffffffffffffffffffffffffffffffffffffffff161415611f7f576040517f08c379a0000000000000000000000000000000000000000000000000000000008152600401611f7690613023565b60405180910390fd5b847f4441490000000000000000000000000000000000000000000000000000000000600080838152602001908152602001600020600001541415611ff8576040517f08c379a0000000000000000000000000000000000000000000000000000000008152600401611fef9061308f565b60405180910390fd5b60018081111561200b5761200a6128f2565b5b83600181111561201e5761201d6128f2565b5b14156120bc5784600360003373ffffffffffffffffffffffffffffffffffffffff1673ffffffffffffffffffffffffffffffffffffffff16815260200190815260200160002060008881526020019081526020016000205410156120b7576040517f08c379a00000000000000000000000000000000000000000000000000000000081526004016120ae906130fb565b60405180910390fd5b612182565b6120cf84866127d690919063ffffffff16565b600360003373ffffffffffffffffffffffffffffffffffffffff1673ffffffffffffffffffffffffffffffffffffffff16815260200190815260200160002060007f44414900000000000000000000000000000000000000000000000000000000008152602001908152602001600020541015612181576040517f08c379a0000000000000000000000000000000000000000000000000000000008152600401612178906131e9565b60405180910390fd5b5b60006004600088815260200190815260200160002060008560018111156121ac576121ab6128f2565b5b815260200190815260200160002090508060405180610100016040528060055481526020018660018111156121e4576121e36128f2565b5b81526020018981526020013373ffffffffffffffffffffffffffffffffffffffff168152602001888152602001600081526020018781526020014281525090806001815401808255809150506001900390600052602060002090600802016000909190919091506000820151816000015560208201518160010160006101000a81548160ff021916908360018111156122805761227f6128f2565b5b02179055506040820151816002015560608201518160030160006101000a81548173ffffffffffffffffffffffffffffffffffffffff021916908373ffffffffffffffffffffffffffffffffffffffff1602179055506080820151816004015560a0820151816005015560c0820151816006015560e082015181600701555050600080828054905011612314576000612326565b600182805490506123259190613281565b5b90505b600081111561277a5760006001811115612346576123456128f2565b5b856001811115612359576123586128f2565b5b1480156123b957508160018261236f9190613281565b815481106123805761237f61311b565b5b9060005260206000209060080201600601548282815481106123a5576123a461311b565b5b906000526020600020906008020160060154105b156123c35761277a565b6001808111156123d6576123d56128f2565b5b8560018111156123e9576123e86128f2565b5b1480156124495750816001826123ff9190613281565b815481106124105761240f61311b565b5b9060005260206000209060080201600601548282815481106124355761243461311b565b5b906000526020600020906008020160060154115b156124535761277a565b6000826001836124639190613281565b815481106124745761247361311b565b5b906000526020600020906008020160405180610100016040529081600082015481526020016001820160009054906101000a900460ff1660018111156124bd576124bc6128f2565b5b60018111156124cf576124ce6128f2565b5b8152602001600282015481526020016003820160009054906101000a900473ffffffffffffffffffffffffffffffffffffffff1673ffffffffffffffffffffffffffffffffffffffff1673ffffffffffffffffffffffffffffffffffffffff16815260200160048201548152602001600582015481526020016006820154815260200160078201548152505090508282815481106125705761256f61311b565b5b90600052602060002090600802018360018461258c9190613281565b8154811061259d5761259c61311b565b5b9060005260206000209060080201600082015481600001556001820160009054906101000a900460ff168160010160006101000a81548160ff021916908360018111156125ed576125ec6128f2565b5b0217905550600282015481600201556003820160009054906101000a900473ffffffffffffffffffffffffffffffffffffffff168160030160006101000a81548173ffffffffffffffffffffffffffffffffffffffff021916908373ffffffffffffffffffffffffffffffffffffffff16021790555060048201548160040155600582015481600501556006820154816006015560078201548160070155905050808383815481106126a2576126a161311b565b5b90600052602060002090600802016000820151816000015560208201518160010160006101000a81548160ff021916908360018111156126e5576126e46128f2565b5b02179055506040820151816002015560608201518160030160006101000a81548173ffffffffffffffffffffffffffffffffffffffff021916908373ffffffffffffffffffffffffffffffffffffffff1602179055506080820151816004015560a0820151816005015560c0820151816006015560e08201518160070155905050818061277190613506565b92505050612329565b5050505050505050565b600260009054906101000a900473ffffffffffffffffffffffffffffffffffffffff1681565b600081836127b89190613281565b905092915050565b600081836127ce91906132b5565b905092915050565b600081836127e49190613530565b905092915050565b604051806040016040528060008019168152602001600073ffffffffffffffffffffffffffffffffffffffff1681525090565b600080fd5b6000819050919050565b61283781612824565b811461284257600080fd5b50565b6000813590506128548161282e565b92915050565b6000819050919050565b61286d8161285a565b811461287857600080fd5b50565b60008135905061288a81612864565b92915050565b6000806000606084860312156128a9576128a861281f565b5b60006128b786828701612845565b93505060206128c88682870161287b565b92505060406128d98682870161287b565b9150509250925092565b6128ec8161285a565b82525050565b7f4e487b7100000000000000000000000000000000000000000000000000000000600052602160045260246000fd5b60028110612932576129316128f2565b5b50565b600081905061294382612921565b919050565b600061295382612935565b9050919050565b61296381612948565b82525050565b61297281612824565b82525050565b600073ffffffffffffffffffffffffffffffffffffffff82169050919050565b60006129a382612978565b9050919050565b6129b381612998565b82525050565b6000610100820190506129cf600083018b6128e3565b6129dc602083018a61295a565b6129e96040830189612969565b6129f660608301886129aa565b612a0360808301876128e3565b612a1060a08301866128e3565b612a1d60c08301856128e3565b612a2a60e08301846128e3565b9998505050505050505050565b6000602082019050612a4c60008301846128e3565b92915050565b60028110612a5f57600080fd5b50565b600081359050612a7181612a52565b92915050565b60008060408385031215612a8e57612a8d61281f565b5b6000612a9c85828601612845565b9250506020612aad85828601612a62565b9150509250929050565b600081519050919050565b600082825260208201905092915050565b6000819050602082019050919050565b612aec8161285a565b82525050565b612afb81612948565b82525050565b612b0a81612824565b82525050565b612b1981612998565b82525050565b61010082016000820151612b366000850182612ae3565b506020820151612b496020850182612af2565b506040820151612b5c6040850182612b01565b506060820151612b6f6060850182612b10565b506080820151612b826080850182612ae3565b5060a0820151612b9560a0850182612ae3565b5060c0820151612ba860c0850182612ae3565b5060e0820151612bbb60e0850182612ae3565b50505050565b6000612bcd8383612b1f565b6101008301905092915050565b6000602082019050919050565b6000612bf282612ab7565b612bfc8185612ac2565b9350612c0783612ad3565b8060005b83811015612c38578151612c1f8882612bc1565b9750612c2a83612bda565b925050600181019050612c0b565b5085935050505092915050565b60006020820190508181036000830152612c5f8184612be7565b905092915050565b612c7081612998565b8114612c7b57600080fd5b50565b600081359050612c8d81612c67565b92915050565b60008060408385031215612caa57612ca961281f565b5b6000612cb885828601612c7e565b9250506020612cc985828601612845565b9150509250929050565b600080600060608486031215612cec57612ceb61281f565b5b6000612cfa86828701612845565b9350506020612d0b8682870161287b565b9250506040612d1c86828701612a62565b9150509250925092565b600060208284031215612d3c57612d3b61281f565b5b6000612d4a84828501612845565b91505092915050565b6000604082019050612d686000830185612969565b612d7560208301846129aa565b9392505050565b60008060408385031215612d9357612d9261281f565b5b6000612da185828601612845565b9250506020612db285828601612c7e565b9150509250929050565b600060208284031215612dd257612dd161281f565b5b6000612de08482850161287b565b91505092915050565b6000602082019050612dfe6000830184612969565b92915050565b60008060408385031215612e1b57612e1a61281f565b5b6000612e298582860161287b565b9250506020612e3a85828601612845565b9150509250929050565b600081519050919050565b600082825260208201905092915050565b6000819050602082019050919050565b604082016000820151612e866000850182612b01565b506020820151612e996020850182612b10565b50505050565b6000612eab8383612e70565b60408301905092915050565b6000602082019050919050565b6000612ecf82612e44565b612ed98185612e4f565b9350612ee483612e60565b8060005b83811015612f15578151612efc8882612e9f565b9750612f0783612eb7565b925050600181019050612ee8565b5085935050505092915050565b60006020820190508181036000830152612f3c8184612ec4565b905092915050565b60008060008060808587031215612f5e57612f5d61281f565b5b6000612f6c87828801612845565b9450506020612f7d8782880161287b565b9350506040612f8e8782880161287b565b9250506060612f9f87828801612a62565b91505092959194509250565b6000602082019050612fc060008301846129aa565b92915050565b600082825260208201905092915050565b7f546f6b656e206973206e6f7420737570706f7274656464646400000000000000600082015250565b600061300d601983612fc6565b915061301882612fd7565b602082019050919050565b6000602082019050818103600083015261303c81613000565b9050919050565b7f444149206973206e6f7420737570706f7274656420746f205472616465000000600082015250565b6000613079601d83612fc6565b915061308482613043565b602082019050919050565b600060208201905081810360008301526130a88161306c565b9050919050565b7f496e73756666696369656e7420546f6b656e0000000000000000000000000000600082015250565b60006130e5601283612fc6565b91506130f0826130af565b602082019050919050565b60006020820190508181036000830152613114816130d8565b9050919050565b7f4e487b7100000000000000000000000000000000000000000000000000000000600052603260045260246000fd5b600060a08201905061315f60008301886128e3565b61316c60208301876128e3565b61317960408301866128e3565b61318660608301856128e3565b61319360808301846128e3565b9695505050505050565b7f496e73756666696369656e74204461692042616c616e63657300000000000000600082015250565b60006131d3601983612fc6565b91506131de8261319d565b602082019050919050565b60006020820190508181036000830152613202816131c6565b9050919050565b7f4e487b7100000000000000000000000000000000000000000000000000000000600052601160045260246000fd5b60006132438261285a565b91507fffffffffffffffffffffffffffffffffffffffffffffffffffffffffffffffff82141561327657613275613209565b5b600182019050919050565b600061328c8261285a565b91506132978361285a565b9250828210156132aa576132a9613209565b5b828203905092915050565b60006132c08261285a565b91506132cb8361285a565b9250827fffffffffffffffffffffffffffffffffffffffffffffffffffffffffffffffff03821115613300576132ff613209565b5b828201905092915050565b7f4e487b7100000000000000000000000000000000000000000000000000000000600052603160045260246000fd5b7f4f6e6c792061646d696e2063616e20616464206e657720546f6b656e73000000600082015250565b6000613370601d83612fc6565b915061337b8261333a565b602082019050919050565b6000602082019050818103600083015261339f81613363565b9050919050565b7f4e6f7420656e6f7567682042616c616e63657300000000000000000000000000600082015250565b60006133dc601383612fc6565b91506133e7826133a6565b602082019050919050565b6000602082019050818103600083015261340b816133cf565b9050919050565b600060408201905061342760008301856129aa565b61343460208301846128e3565b9392505050565b60008115159050919050565b6134508161343b565b811461345b57600080fd5b50565b60008151905061346d81613447565b92915050565b6000602082840312156134895761348861281f565b5b60006134978482850161345e565b91505092915050565b7f4e487b7100000000000000000000000000000000000000000000000000000000600052604160045260246000fd5b60006060820190506134e460008301866129aa565b6134f160208301856129aa565b6134fe60408301846128e3565b949350505050565b60006135118261285a565b9150600082141561352557613524613209565b5b600182039050919050565b600061353b8261285a565b91506135468361285a565b9250817fffffffffffffffffffffffffffffffffffffffffffffffffffffffffffffffff048311821515161561357f5761357e613209565b5b82820290509291505056fea264697066735822122068f4bccad6b1e67b09fb9ff8f5660b351a0338e5a6e5658a87e36ecde6a1f1b864736f6c634300080b0033",
  "immutableReferences": {},
  "source": "// SPDX-License-Identifier: MIT\r\npragma solidity >=0.4.22 <0.9.0;\r\n\r\nimport \"@openzeppelin/contracts/token/ERC20/IERC20.sol\";\r\nimport \"@openzeppelin/contracts/utils/math/SafeMath.sol\";\r\n\r\ncontract Dex {\r\n    using SafeMath for uint256;\r\n\r\n    struct Token {\r\n        bytes32 ticker;\r\n        address tokenAddress;\r\n    }\r\n\r\n    mapping(bytes32 => Token) public tokens;\r\n\r\n    bytes32[] public tokenList;\r\n    address public admin;\r\n\r\n    mapping(address => mapping(bytes32 => uint256)) public traderBalances;\r\n\r\n    //Creating Limit Order-- 2nd Part\r\n    enum Side {\r\n        BUY,\r\n        SELL\r\n    }\r\n\r\n    struct Order {\r\n        uint256 id;\r\n        Side side;\r\n        bytes32 ticker;\r\n        address trader;\r\n        uint256 amount;\r\n        uint256 filled;\r\n        uint256 price;\r\n        uint256 date;\r\n    }\r\n\r\n    mapping(bytes32 => mapping(uint256 => Order[])) public orderBook;\r\n    uint256 public nextOrderId;\r\n    uint256 public nextTradeId;\r\n    bytes32 constant DAI = bytes32(\"DAI\");\r\n\r\n    event NewTrade(\r\n        uint256 tradeId,\r\n        uint256 orderId,\r\n        bytes32 indexed ticker,\r\n        address indexed trader1,\r\n        address indexed trader2,\r\n        uint256 amount,\r\n        uint256 price,\r\n        uint256 date\r\n    );\r\n\r\n    //Creating Market Order and Matching\r\n\r\n    constructor() {\r\n        admin = msg.sender;\r\n    }\r\n\r\n    modifier onlyAdmin() {\r\n        require(msg.sender == admin, \"Only admin can add new Tokens\");\r\n        _;\r\n    }\r\n\r\n    modifier tokenExists(bytes32 _ticker) {\r\n        require(\r\n            tokens[_ticker].tokenAddress != address(0),\r\n            \"Token is not supportedddd\"\r\n        );\r\n        _;\r\n    }\r\n\r\n    modifier tokenIsNotDai(bytes32 _ticker) {\r\n        require(tokens[_ticker].ticker != DAI, \"DAI is not supported to Trade\");\r\n        _;\r\n    }\r\n\r\n    function getOrders(bytes32 ticker, Side side)\r\n        external\r\n        view\r\n        returns (Order[] memory)\r\n    {\r\n        return orderBook[ticker][uint256(side)];\r\n    }\r\n\r\n    function getTokens() external view returns (Token[] memory) {\r\n        Token[] memory _tokens = new Token[](tokenList.length);\r\n        for (uint256 i = 0; i < tokenList.length; i++) {\r\n            _tokens[i] = Token(\r\n                tokens[tokenList[i]].ticker,\r\n                tokens[tokenList[i]].tokenAddress\r\n            );\r\n        }\r\n        return _tokens;\r\n    }\r\n\r\n    function addToken(bytes32 ticker, address tokenAddress) external onlyAdmin {\r\n        Token memory token = Token(ticker, tokenAddress);\r\n        tokens[ticker] = token;\r\n        tokenList.push(ticker);\r\n    }\r\n\r\n    function deposit(uint256 amount, bytes32 ticker)\r\n        external\r\n        tokenExists(ticker)\r\n    {\r\n        IERC20(tokens[ticker].tokenAddress).transferFrom(\r\n            msg.sender,\r\n            address(this),\r\n            amount\r\n        );\r\n\r\n        traderBalances[msg.sender][ticker] = traderBalances[msg.sender][ticker]\r\n            .add(amount);\r\n    }\r\n\r\n    function withdraw(uint256 amount, bytes32 ticker)\r\n        external\r\n        tokenExists(ticker)\r\n    {\r\n        require(\r\n            traderBalances[msg.sender][ticker] >= amount,\r\n            \"Not enough Balances\"\r\n        );\r\n\r\n        IERC20(tokens[ticker].tokenAddress).transfer(msg.sender, amount);\r\n\r\n        traderBalances[msg.sender][ticker] = traderBalances[msg.sender][ticker]\r\n            .sub(amount);\r\n    }\r\n\r\n    //Creating 2nd Part - Limit Order\r\n    function createLimitOrder(\r\n        bytes32 ticker,\r\n        uint256 amount,\r\n        uint256 price,\r\n        Side side\r\n    ) external tokenExists(ticker) tokenIsNotDai(ticker) {\r\n        if (side == Side.SELL) {\r\n            require(\r\n                traderBalances[msg.sender][ticker] >= amount,\r\n                \"Insufficient Token\"\r\n            );\r\n        } else {\r\n            require(\r\n                traderBalances[msg.sender][DAI] >= amount.mul(price),\r\n                \"Insufficient Dai Balances\"\r\n            );\r\n        }\r\n\r\n        Order[] storage orders = orderBook[ticker][uint256(side)];\r\n        orders.push(\r\n            Order(\r\n                nextOrderId,\r\n                side,\r\n                ticker,\r\n                msg.sender,\r\n                amount,\r\n                0,\r\n                price,\r\n                block.timestamp\r\n            )\r\n        );\r\n\r\n        uint256 i = orders.length > 0 ? orders.length - 1 : 0;\r\n\r\n        //Bubble Sort\r\n        while (i > 0) {\r\n            if (side == Side.BUY && orders[i].price < orders[i - 1].price) {\r\n                break;\r\n            }\r\n\r\n            if (side == Side.SELL && orders[i].price > orders[i - 1].price) {\r\n                break;\r\n            }\r\n\r\n            Order memory temp = orders[i - 1];\r\n            orders[i - 1] = orders[i];\r\n            orders[i] = temp;\r\n            i--;\r\n        }\r\n    }\r\n\r\n    //Creating Market Order and Matching\r\n    function createMarketOrder(\r\n        bytes32 ticker,\r\n        uint256 amount,\r\n        Side side\r\n    ) external tokenExists(ticker) tokenIsNotDai(ticker) {\r\n        if (side == Side.SELL) {\r\n            require(\r\n                traderBalances[msg.sender][ticker] >= amount,\r\n                \"Insufficient Token\"\r\n            );\r\n        }\r\n\r\n        Order[] storage orders = orderBook[ticker][\r\n            uint256(side == Side.BUY ? Side.SELL : Side.BUY)\r\n        ];\r\n\r\n        uint256 i = 0;\r\n        uint256 remaining = amount;\r\n\r\n        while (i < orders.length && remaining > 0) {\r\n            uint256 available = orders[i].amount.sub(orders[i].filled);\r\n            uint256 matched = remaining > available ? available : remaining;\r\n            remaining = remaining.sub(matched);\r\n            orders[i].filled = orders[i].filled.add(matched);\r\n\r\n            emit NewTrade(\r\n                nextTradeId,\r\n                orders[i].id,\r\n                ticker,\r\n                orders[i].trader,\r\n                msg.sender,\r\n                matched,\r\n                orders[i].price,\r\n                block.timestamp\r\n            );\r\n\r\n            if (side == Side.SELL) {\r\n                traderBalances[msg.sender][ticker] = traderBalances[msg.sender][\r\n                    ticker\r\n                ].sub(matched);\r\n\r\n                traderBalances[msg.sender][DAI] = traderBalances[msg.sender][\r\n                    DAI\r\n                ].add(matched.mul(orders[i].price));\r\n\r\n                traderBalances[orders[i].trader][ticker] = traderBalances[\r\n                    orders[i].trader\r\n                ][ticker].add(matched);\r\n\r\n                traderBalances[orders[i].trader][DAI] = traderBalances[\r\n                    orders[i].trader\r\n                ][DAI].sub(matched.mul(orders[i].price));\r\n            }\r\n\r\n            if (side == Side.BUY) {\r\n                require(\r\n                    traderBalances[msg.sender][DAI] >=\r\n                        matched.mul(orders[i].price),\r\n                    \"Insufficient Dai Balances\"\r\n                );\r\n\r\n                traderBalances[msg.sender][ticker] = traderBalances[msg.sender][\r\n                    ticker\r\n                ].add(matched);\r\n\r\n                traderBalances[msg.sender][DAI] = traderBalances[msg.sender][\r\n                    DAI\r\n                ].sub(matched.mul(orders[i].price));\r\n\r\n                traderBalances[orders[i].trader][ticker] = traderBalances[\r\n                    orders[i].trader\r\n                ][ticker].sub(matched);\r\n\r\n                traderBalances[orders[i].trader][DAI] = traderBalances[\r\n                    orders[i].trader\r\n                ][DAI].add(matched.mul(orders[i].price));\r\n            }\r\n            nextTradeId++;\r\n            i++;\r\n        }\r\n\r\n        while (i < orders.length && orders[i].filled == orders[i].amount) {\r\n            for (uint256 j = i; j < orders.length - 1; j++) {\r\n                orders[j] = orders[j + 1];\r\n            }\r\n\r\n            orders.pop();\r\n            i++;\r\n        }\r\n    }\r\n}\r\n",
  "sourcePath": "C:\\Users\\Suman\\Desktop\\Blockchain\\Capstone_Dex\\MotoSwap\\contracts\\Dex.sol",
  "compiler": {
    "name": "solc",
    "version": "0.8.11+commit.d7f03943.Emscripten.clang"
  },
  "schemaVersion": "3.4.5",
  "updatedAt": "2022-05-12T17:24:17.685Z",
  "networkType": "ethereum",
  "devdoc": {
    "kind": "dev",
    "methods": {},
    "version": 1
  },
  "userdoc": {
    "kind": "user",
    "methods": {},
    "version": 1
  }
}